:020000040000FA
:04000000A0EF37F046
:10010000D9CFE5FFE1CFD9FF00C0E5FF01C0E5FF92
:10011000936A816AE80E006EFD0E016EFF0E0026E6
:10012000012200500110FAE1FF0E816EE80E006E10
:10013000FD0E016EFF0E0026012200500110FAE1B3
:10014000E8D7E4CF01F0E4CF00F0E4CFD9FF12000C
:106F400011EEFFF021EEFFF0F86AA68EA69C9FECF2
:046F50003AF0FFD73D
:0871780080EF00F000000000B0
:10718000D9CFE5FFE1CFD9FF00C0E5FF01C0E5FFA2
:1071900002C0E5FF03C0E5FF6C50D8A4A2D13C0EAD
:1071A00004010015006E0040E8403F0B006E0050E7
:1071B0000D0A01E052D104010451006E009E0050FE
:1071C0000401046F04010051006E009E0050040190
:1071D000006F0001C26B0001C36B0001C46B0501AD
:1071E0004051600BD8A4A4D041C500F0005001E18B
:1071F00082D00050010A01E181D00050030A01E170
:107200007DD00050050A13E00050060A19E0005036
:10721000080A01E156D00050090A15E000500A0A98
:1072200001E16FD000500B0A01E17BD07ED0010E4E
:107230000001C36F040E0001C56F42C5BFF0B1D09D
:1072400083EC3BF0AED0010E0001C36F42C5C0F02D
:107250000001C05104E1040E0001C56FA2D0050E6B
:107260000001C56F1E0E716E900E006E050E016E50
:10727000005004010E6F015004010F6F400E040115
:107280000C6F1E0E726E200E0401116F200E006E28
:10729000050E016E00500401126F01500401136FBE
:1072A000880E0401106F000E006E050E016E005076
:1072B0000401166F01500401176F400E0401146F92
:1072C00070D0010E0001C36F9E0E0001C025006E3C
:1072D000016A7C0E0122026A000E022202500001A5
:1072E000B26F01500001B16F00500001B06F010E8C
:1072F0000001C46F56D036EC3CF053D029EC3DF081
:1073000050D0010E0001C36F000E0001B26F7C0E61
:107310000001B16F9C0E0001B06F010E0001C46F3F
:1073200040D0010E0001C36F3CD00001C36B39D0C7
:10733000600E05014015006E0050200A32E141C583
:1073400000F0200E005C2BE3230E005C28E2E00E30
:107350000026FA6AFB6A0034FA36E834FA36FC0B87
:10736000700FE56E730EFA22000EFB22E450F96EE8
:10737000BEEF39F0C2EF39F0BEEF39F0010E000177
:10738000C36F0FD0A10E0001B36F000E0001B46FE8
:10739000050E0001C46F010E0001C36F02D0000191
:1073A000C36B0001C35114E1100E0401016F400EC4
:1073B000006E050E016E00500401026F01500401C1
:1073C000036F840E0401006F840E0401046F43D028
:1073D000050140AF28D0C4C000F0016A015005018A
:1073E000475D03E100500501465D04E20501465199
:1073F0000001C46FB8EC3CF0020E0001C26F100E29
:107400000401016F400E006E050E016E0050040174
:10741000026F01500401036F800E0401006FC80E5B
:107420000401046F18D0010E0001C26F0401056B46
:10743000C80E0401046F100E0401016F800E006E6F
:10744000050E016E00500401026F01500401036F2C
:10745000C80E0401006F6D9867D00001C251010A87
:1074600001E03CD0040101510001C427800E00015D
:10747000B36F050E0001B46F01C4C1F0C1C000F0CC
:107480000001C10700501FE0B5C000F0B6C001F018
:10749000B3C002F0B4C003F002C0E9FF03C0EAFFCA
:1074A000EFCF02F00001B33F02D00001B42B00C0C7
:1074B000E9FF01C0EAFF02C0EFFF0001B53F02D0C3
:1074C0000001B62BDBD7040100AD04D0880E040107
:1074D000006F2AD0C80E0401006F26D0E6EC3EF003
:1074E00023D06C50040A20E16E500BE10001C5511D
:1074F000040A07E142C56EFF6E5003E1030E00016E
:10750000C56F0001C251020A0DE1B8EC3CF0040164
:1075100004AD04D0880E0401046F06D0C80E040127
:10752000046F02D0E6EC3EF0E4CF03F0E4CF02F0CB
:10753000E4CF01F0E4CF00F0E4CFD9FF12000AEC71
:107540003FF090EC3DF00001A66B0001A76B00013D
:10755000A86B0001A96B0001C551050A21E090EC60
:107560003DF00001A62B08E30001A72B05E3000175
:10757000A83F02D00001A92B000E0001A95D0BE17C
:10758000030E0001A85D07E10D0E0001A75D03E1F8
:10759000410E0001A65DDFE36D96BCEF38F0DBD74E
:1075A000E8EC3DF00001BA51C10A03E06D96BCEF72
:1075B00038F0550E8DEC3EF0B9EC3FF04B0E8DECF3
:1075C0003EF0B9EC3FF00001AA6BE8EC3DF0BAC028
:1075D000F8FFBAC0BBF0E8EC3DF0BAC0F7FFBAC0A4
:1075E000A9FFE8EC3DF0BAC0F6FFBAC0A8FFE8EC8E
:1075F0003DF0BAC0BCF00001BC2B000E0001AE6F24
:10760000600E0001AD6F800E0001AF6FBAC0F5FFD4
:10761000E8EC3DF0ADC000F0AEC001F0AFC002F04C
:10762000BAC0E5FF00C0E9FF01C0F3FF0250D2EC91
:107630003FF00001AD2B05E30001AE3F02D0000199
:10764000AF2B0001BC070001BC51E0E10001AA51D1
:10765000D8A452D0F29E0001BBAD06D0040EE56E58
:10766000AAEC3FF0E65245D00001BBAF07D00C00BA
:10767000C40EE56EAAEC3FF0E6523BD0940EE56EE8
:10768000AAEC3FF0E6520A00020E0001BD6F000EA8
:107690000001AE6F600E0001AD6F800E0001AF6F94
:1076A000200E0001BE6FADC000F0AEC001F0AFC053
:1076B00002F000C0E9FF01C0F3FF025089EC3FF087
:1076C000F56E0001AD2B05E30001AE3F02D00001D5
:1076D000AF2B0F000001BE070001BE51E4E1840E94
:1076E000E56EAAEC3FF0E6520001BD070001BD5176
:1076F000D7E1A694F28E62D74E0E8DEC3EF0B9EC37
:107700003FF061D71200D9CFE5FFE1CFD9FF00C02C
:10771000E5FF01C0E5FF02C0E5FF03C0E5FF04C0CF
:10772000E5FF05014051800A01E093D043C500F018
:1077300042C501F00050010A1CE1010E0001C36FB7
:10774000800E0001B06F7C0E0001B16F000E0001D1
:10775000B26FB0C002F0B1C003F0B2C004F002C01A
:10776000F6FF03C0F7FF04C0F8FF0900F5CFC4F02F
:1077700070D00050060A10E1010E0001C36F920E96
:107780000001B06F7C0E0001B16F000E0001B26FFE
:107790000A0E0001C46F5DD00050020A22E1010E02
:1077A0000001C36F000E0001B26F7C0E0001B16FCB
:1077B000A40E0001B06F0001B051020F026E000E66
:1077C0000001B121036E000E0001B221046E02C05F
:1077D000F6FF03C0F7FF04C0F8FF0900F5CFC4F0BF
:1077E00038D00050030A01E034D0010E0001C36F0D
:1077F00001500AE1E80E0001B06F7C0E0001B16F8C
:10780000000E0001B26F16D00150010A0AE1EC0E21
:107810000001B06F7C0E0001B16F000E0001B26F6D
:1078200009D0FA0E0001B06F7C0E0001B16F000E9E
:107830000001B26FB0C000F0B1C001F0B2C002F000
:1078400000C0F6FF01C0F7FF02C0F8FF0900F5CF46
:10785000C4F0E4CF04F0E4CF03F0E4CF02F0E4CFCF
:1078600001F0E4CF00F0E4CFD9FF1200D9CFE5FF5B
:10787000E1CFD9FF00C0E5FF01C0E5FF02C0E5FF91
:1078800003C0E5FF04C0E5FF1F0E05014015006EB3
:1078900000500DE1010E0001C36F000E0001B26F38
:1078A0007C0E0001B16FA20E0001B06F4ED00050EF
:1078B000010A0DE1000E0001B26F7C0E0001B16FF4
:1078C0009C0E0001B06F010E0001C36F3ED000504E
:1078D000020A01E03AD00F0E05014415006E800E39
:1078E00005014415016E010E0001C36F000E026E0A
:1078F000040E036E0050080DF450046EF3CF00F038
:10790000005002240001B56F045003200001B66F3F
:10791000015006E0040E0001B52702E30001B62B7A
:10792000B5C000F0B6C001F000C0E9FF01C0EAFF39
:10793000EFCF00F000A409D0000E0001B26F7C0E62
:107940000001B16FA00E0001B06F0001C35103E050
:10795000020E0001C46FE4CF04F0E4CF03F0E4CFE3
:1079600002F0E4CF01F0E4CF00F0E4CFD9FF120041
:10797000D9CFE5FFE1CFD9FF00C0E5FF01C0E5FFAA
:1079800002C0E5FF03C0E5FF04C0E5FF100E0001E3
:10799000C45D03E2C4C000F002D0100E006E04010A
:1079A0000451016EFC0E011601500401046F0050D9
:1079B0000401056F800E016E050E026E0150040178
:1079C000066F02500401076F00500001C45F800E73
:1079D0000001B56F050E0001B66F00C0C1F0C1C057
:1079E00000F00001C107005027E0B5C000F0B6C0AC
:1079F00001F0B0C002F0B1C003F0B2C004F002C0A8
:107A0000F6FF03C0F7FF04C0F8FF0900F5CF02F04E
:107A10000001B02B05E30001B13F02D00001B22B01
:107A200000C0E9FF01C0EAFF02C0EFFF0001B53F5F
:107A300002D00001B62BD3D7E4CF04F0E4CF03F09B
:107A4000E4CF02F0E4CF01F0E4CF00F0E4CFD9FFBF
:107A50001200D9CFE5FFE1CFD9FF00C0E5FF01C09B
:107A6000E5FF02C0E5FF03C0E5FF04C0E5FF1F0E10
:107A700005014015006E42C501F00050020A01E008
:107A800042D00F0E05014415006E800E050144150D
:107A9000026E0150D8A437D0005035E0010E00012D
:107AA000C36F000E016E040E036E0050080DF450FB
:107AB000046EF3CF00F0005001240001B56F0450B4
:107AC00003200001B66F025006E0040E0001B52746
:107AD00002E30001B62B05014151030A03E1840EC4
:107AE000006E07D00250010A02E1006A02D0880E3F
:107AF000006EB5C001F0B6C002F001C0E9FF02C0DF
:107B0000EAFF00C0EFFFE4CF04F0E4CF03F0E4CFDE
:107B100002F0E4CF01F0E4CF00F0E4CFD9FF12008F
:107B2000D9CFE5FFE1CFD9FF00C0E5FF006A6FBE06
:107B3000002A0050010A09E00001C55106E0006A70
:107B40006DB2002A0050010A01E13DD068A01CD0AE
:107B500069A01AD06A6A686A9F0E6B6E2B0E696EF6
:107B60006E6A160E706E006A68B6002A0050010A2E
:107B700002E16896F8D76D98E6EC3EF00001C06B24
:107B8000030E0001C56F689068AC03D069AC01D0EA
:107B9000689C68AA0CD069AA0AD0006A70B0002A52
:107BA0000050010A03E1E6EC3EF07090689A68A28A
:107BB00003D069A201D0689268A605D069A603D057
:107BC000C0EC38F06896E4CF00F0E4CFD9FF1200A3
:107BD000D9CFE5FFE1CFD9FF00C0E5FF01C0E5FF48
:107BE00002C0E5FF03C0E5FF0001B76B0001B86B01
:107BF0000001B96B90EC3DF073EC3FF0006E00506B
:107C00000BE0B9EC3FF0BBEC3EF00001BA6F0001B5
:107C1000BA510001AA2724D00001B92BFF0E0001A0
:107C2000B95DE8E30001B82BFF0E0001B85DE0E3A9
:107C30000001B72BB7C000F0016A026A036A035063
:107C4000800F800F08E1000E025C05E1000E015C70
:107C500002E1070E005CD8A0C9D76D96BCEF38F0E2
:107C6000E4CF03F0E4CF02F0E4CF01F0E4CF00F082
:107C7000E4CFD9FF12003DEF3EF09FEC3AF0120046
:107C8000120100020200001008040A0000010100B5
:107C900000010A06000202000010010000000001BD
:107CA0000100010009024300020100C03209040082
:107CB0000001020201000524001001052401010158
:107CC0000424020205240600010705810308000AB6
:107CD00009040100020A0000020705020220000058
:107CE0000705820220000000040309040E0354006B
:107CF00065007300740065002100200355005300E7
:107D000042002000470065006E00650072006900B7
:107D100063002000430044004300D9CFE5FFE1CFDA
:107D2000D9FF00C0E5FF01C0E5FF02C0E5FF006E1E
:107D300026EC3FF0016E0150FBE1ABC001F0000109
:107D4000AB2B026A000E0126050E022201C0E9FFDC
:107D500002C0EAFF00C0EFFF200E0001AB5D02E3AE
:107D6000B9EC3FF0E4CF02F0E4CF01F0E4CF00F053
:107D7000E4CFD9FF1200D9CFE5FFE1CFD9FF00C092
:107D8000E5FF01C0E5FF73EC3FF0006E0050FBE043
:107D9000ACC000F00001AC2B016A200E0026050EDD
:107DA000012200C0E9FF01C0EAFFEFCF00F00401AB
:107DB00011510001AC5D02E35DEC3FF00050E4CFF7
:107DC00001F0E4CF00F0E4CFD9FF1200D9CFE5FFF6
:107DD000E1CFD9FF00C0E5FF01C0E5FF0001C26BA4
:107DE000100E0401016F400E006E050E016E005072
:107DF0000401026F01500401036F880E0401006F3B
:107E00000401046B6D98E4CF01F0E4CF00F0E4CFFF
:107E1000D9FF1200D9CFE5FFE1CFD9FF140E6F6E65
:107E20000001C56B0001C06B6DB606D06D6A696A52
:107E30006D86010E0001C56F686A696A6980020E6D
:107E40000001C56FA08AE4CFD9FF1200D9CFE5FFAA
:107E5000E1CFD9FF00C0E5FF800E04011415006ECC
:107E6000005003E1006A002A01D0006A0050D88067
:107E7000E866D890006A00360050E4CF00F0E4CF06
:107E8000D9FF1200D9CFE5FFE1CFD9FF00C0E5FF50
:107E9000006E00500DE000500401156F040114AD98
:107EA00004D0880E0401146F03D0C80E0401146FAF
:107EB000E4CF00F0E4CFD9FF1200D9CFE5FFE1CF46
:107EC000D9FF0001AC6B200E0401116F040110AD4D
:107ED00004D0880E0401106F03D0C80E0401106F87
:107EE000E4CFD9FF1200D9CFE5FFE1CFD9FF0401DC
:107EF00010AF02D0E86A0AD0040111510001AC5D54
:107F000004E35DEC3FF0E86A01D0010EE4CFD9FF55
:107F10001200E8AE04D0F3CFEAFFEE501200E8BC46
:107F2000F0EF3FF0E9CFF6FFF3CFF7FFF86E09006F
:107F3000F5501200F2CFEAFFF29EA69EA69CA68400
:107F4000E9CFA9FFE4CFA8FFDDEC3FF0A694EABE9D
:107F5000F28E1200D9CFE5FFE1CFD9FF020EDBCFC1
:107F6000A6FF550EA76EAA0EA76EA682E4CFD9FF74
:107F70001200D9CFE5FFE1CFD9FF0001AB5142ECB0
:107F80003FF00001AB6BE4CFD9FF1200F2CFF6FF58
:107F9000F29EA69EA69CE9CFA9FFA680A850F6BE99
:107FA000F28E1200E8AE05D0F3CFEAFFE4CFEEFF89
:107FB0001200E8BCEEEF3FF01200550EA76EAA0EBD
:107FC000A76EA682A6B2FED7A94A0100D87F0000FC
:107FD000AA00000003000000000000009AEF3FF03C
:047FE000C6EF3FF0B9
:020000040030CA
:04000000220E391E75
:020005008080F9
:060008000FC00FE00F40E5
:00000001FF
